:020000040000FA
:060000000212080207AA2B
:03002B00020FE8D9
:030053000206DFC3
:03006B00020D88FB
:1000830002073E010000000000F8FF07FFFF000029
:100093000504000000030001FF14102700000020E6
:1000A300FD000206FFFF1EB61A000000000000005C
:1000B3000000000000000041006400000001000196
:1000C300000104010C000201FD8602E78601040021
:1000D300006E13000000E8030000FFFFBF13018858
:1000E300130000E803000064006400B801A0BB0D26
:1000F30000A0BB0D00020202070401051E02051E3B
:10010300020A0A010108080103B80B02803E01023A
:10011300FEFFE8030A050001FFFF020A011401E0E4
:10012300050301010F0D2C00000000432B0000000C
:1001330000FF000000FF0012122760461212186031
:100143003DE9687008F618F618F618F62274806709
:10015300F712016E090909748067F72212121860F9
:100163001D1212277005191919801A1210F3701F26
:10017300121107C37003E6673319191940071818DA
:10018300182208080874FFF618F618F618F6221253
:10019300110760171212B5702192F01212BE701976
:1001A300501720F014080808090909E7F61819E799
:1001B300F61819E7F61819E7F6221212BE60E6E8F8
:1001C30069701F0808E62480F608E436F618547FA1
:1001D300B47F0CE654806007F6E418F618F622188C
:1001E3001822E9C6CC08C6CD08C6CE08C6CFC0E0E3
:1001F300E8C0E0EAC0E0EBC0E009E9F809E7FA0982
:10020300E7FBE6F918E6F8C3EC98ED99EE9AEBC232
:10021300E7F5F0EFC2E795F0500E600CEBCFFBEA89
:10022300CEFAE9CDF9E8CCF8EAA2E7D2E7FAEB3364
:10023300FB13F5F0EEA2E7D2E7FEEF33FFC5F013B1
:10024300A2E730E601B313C5F0C3C0E0C0F07F00FE
:10025300C39BFB605E9418600F401D14601AD0E0CE
:1002630023F9D0E0F80203408AF0E9486003D2F0B2
:10027300E4AFF0FAF9F8803BEB30E40D89F0EA6083
:1002830003D2F0E4AFF0F9CAF8EB30E30D88F0EFF6
:100293006002D2F0AFF0E4CAC9F8EB54076014FB74
:1002A300C3EA13FAE913F9E813F8EF135002D2E0A3
:1002B300FFDBEDD0E0C0E030E739C3E49FFFF5F0AA
:1002C300EC98FC42F0ED99FD42F0EE9AFE42F0D03C
:1002D300E0F9D0E0F8E5F0607AE923F9EE20E742AF
:1002E300D8028067C3EF33FFEC33FCED33FDEE330D
:1002F300FE80EAEC28FCED39FDEE3AFED0E023F96E
:10030300D0E0F84002801BC3EE13FEED13FDEC13A7
:10031300FCEF135002D2E0FF08B800067F7F74FFA2
:10032300802EEF3350178CF020F00260100CBC00CD
:100333000C0DBD00080EBE000408E860DFE933E8D9
:1003430013FFEE2313FE4F4D4C8008E95480FFE466
:10035300FEFDFCEE33EF33F47004FCFD7E80D0E051
:10036300FBD0E0FAD0E0F8D0E0CFC618CEC618CD67
:10037300C618CCC6F92212121870041818182212C3
:100383001227700D74FFF61819F61819F61819F6D6
:1003930022E7548066F61212BE700F1212B570F087
:1003A30014F608F608F608F680D11212B5700CF6AA
:1003B30008F608768008E6447F80EC12110A700C78
:1003C3001210F660BFE65480F6E480BB1210F6709C
:1003D3000519191980A5E869700C763F18768018FD
:1003E300F618F6E8F922E6CDC0E018ECC0E0E633F3
:1003F300CD33CDD313F6E719FCE7191933CC33C347
:10040300947F400ECD9D502408E65480F6E418F600
:10041300800FF4043D14501408E6447FF6187680E8
:10042300E418F618F6D0E0FCD0E0FD22CCD313CCD0
:10043300FD18E4C6CBC0E018E4C6CAC0E00808ED66
:1004430008C633E613F618E433C675F003C3CA9738
:10045300CA09CB97CB199C40047D08802EBD0003AD
:1004630002052216B6FF050606081618C3CA33CAC4
:10047300CB33CB33CA27CA09CB37CB193CC37D084F
:10048300803E187D0820E75CC633C6CA33CACB3327
:10049300CB33DDF1D5F0EB30E77BCA97CA09CB97B5
:1004A3004ACB199C406F4B7025E620E021806618EB
:1004B3007D08C3CA97CA09CB97CB199CD3C633C649
:1004C300CA33CACB33CB3350C9DDE7D5F0E1D3E42C
:1004D300C636C608C636C608C636C608C636C618E1
:1004E30018188031C3CA97CA09CB97CB199CB3405C
:1004F30097C633C6CA33CACB33CB33DD34D5F02EDC
:10050300C6A2E0C640C8CA27CA09CB37194A70BE7B
:10051300CB3CB480B90808E63308E633601F1818EB
:1005230018D0E0FAD0E0FBD0E0FCD0E0FD22187D4B
:1005330008CA27CA09CB37CB193CD3808013F618D6
:10054300E4B67F11F618B6FF0EF618C60470D2088B
:1005530008768080CAF618F618F680C500121218BD
:10056300604F1212276012E7548066F61210F37080
:10057300111212B5703B090909F4F618F618F618AA
:10058300F62212110770151212BE08080860EAE677
:10059300447FF618768018E4F618F6221212BE602D
:1005A300161212B57012E4F608F608F608E654803F
:1005B300F609090918181822EAC0E0EBC0E0ECC0FC
:1005C300E0EDC0E0E687F0A4FBACF008E687F0A41A
:1005D3002CFCE435F0FA1809E687F0A42C4B6002F2
:1005E3007401CA35F0FCE433FB09E687F0D2F7A4C3
:1005F3002CCB35F0FC1908E687F0A42BCC35F0FBA7
:10060300E433FD0819E687F0D2E7A42C4ACB35F092
:10061300CD3400FC09E687F0D2E7A42DCC35F0FDFC
:10062300E433FA0918E687F0D2F7A42CCD35F0CAE3
:100633003400FC08E687F0D2E7D2F7A42ACC35F0E1
:100643007A7E20E70B0ACB33CBCD33CDCC33CC33FF
:10065300CB3350147004ED30E00ED2F1E4CD3DCD38
:10066300CC3CCC3B5005DA05C2F1EB547FC63308D2
:10067300E63392F0FBE73309E733C39A502D2B702F
:10068300190C0D4C4D70151806E608C333700D2078
:10069300F10AA2F013F6E418800B4024E4F630F0DC
:1006A30002768018F618F618F68024D33B145010FF
:1006B30074FFA2F013F6187680E418F618F6800F8C
:1006C300A2F013F618E63303F618ECF618EDF6D09D
:1006D300E0FDD0E0FCD0E0FBD0E0FA22C0E074F112
:1006E300120A5BA2AFE433F509D2AF85A708AFA125
:1006F300EF5508FE74105E600612154675A1EF747F
:10070300085E600812154C75A1F78024EFA2E092F1
:10071300F0E508A2E082F05017906198E0F89005A8
:10072300F0E0C398A2D265D0335002E8F075A1FE81
:10073300E509A2E092AF7F02020B17C0E074F21248
:100743000A5BA2AFE433FED2AF9061A4E0F8759BDD
:1007530000E59158540860087591F712159A8023A3
:10076300E59158541060087591EF1215A08014E5B7
:1007730091A2E092F0E8A2E082F05007E0C2E0F03C
:100783001216F69061A3E0F8E5E9585404600E12DE
:1007930016CC75E9FB906193E0A2E640F2EEA2E08D
:1007A30092AF7F01020B17C0E074F2120A5BA2AF93
:1007B300E433FED2AF9061A5E0F8E5BF585404607E
:1007C3000675BFFB12170E80D412081730F03912CA
:1007D300085C803412081720F01430E72B74FFFCF8
:1007E300FBFA747F8022E4FCFBFA7480801AB480E5
:1007F30008BC00F2BB00EF800F50EBF9E4C39AFA98
:10080300E49BFBE49CFCE499C6CC18C6CB18C6CA8F
:1008130018C6F922E4C9C608CAC608CBC6D333032F
:1008230008CCC63392F0C3947F402E94184019C964
:10083300B90704CACBCC225025C309CA33CACB3368
:10084300CBCC33CC33D9F422F4600DC9CCC313CB56
:1008530013CBCA13CAD9F6CC22E4FCFBFA2214FC4C
:10086300FBFA22C3E498F8E499F91208A78026C397
:10087300E49AFAE49BFBE920E7E91208A7E498F875
:10088300E499F922C3E498F8E499F91208A7E498E3
:10089300F8E499F9C3E49AFAE49BFB22EB20E7CF4F
:1008A300E920E7E0B90010BB0008E88AF084F8AA61
:1008B300F022E4FBC8FA22EB70227B10C833C8C9CC
:1008C30033C9335007C39AC3DBF280069A50012A17
:1008D300DBEAC833F4C8C933F4C9FA2275F008E473
:1008E300C833C8C933C933C99AC99B5004C92AC973
:1008F3003BD5F0ECFBC833F4C8E4C9FA2208080876
:10090300EAC0E0EBC0E086F0E7A4FA180986F0E756
:10091300A42AFA180986F0E7A42AFA180986F0E748
:10092300A42AFA1986F0E7A4FBE5F02AFA19088647
:10093300F0E7A42BFBE5F03AFA190886F0E7A42BBD
:10094300FBE5F03AFA18180986F0E7A4C5F02BFB8B
:10095300E43AFA1908E7C5F0C6A426F6E5F03BFB2E
:10096300E43AFA1886F0E7A4F6E5F00826F6E43B45
:1009730008F6E43A08F6D0E0FBD0E0FA22E4CFC070
:10098300E0E4CEC0E0E4CDC0E0E4CCC0E075F0200C
:10099300E626F608E633F608E633F608E633F618F5
:1009A3001818EC33FCED33FDEE33FEEF33FFC3ECED
:1009B3009709ED9709EE9709EF97191919400FFF5A
:1009C300EC97FC09ED97FD09EE97FE191906D5F092
:1009D300BFECF709EDF709EEF709EFF7191919D08D
:1009E300E0FCD0E0FDD0E0FED0E0FF222521C5826F
:1009F300C0E0E52234FFC583C0E0E521C39582242E
:100A0300F810AF088583228582218008858322859B
:100A13008221D2AFCEF0A3E520F0A37808E608F058
:100A2300A3DEFAEFF0A3E58124FAF8E608F0A3E6E3
:100A330008F0A3E608F0A30808E608F0A3E608F028
:100A4300A315811581D0E0FED0E0F815811581153D
:100A530081E8C0E0EEC0E022C0D02521C582C0E01D
:100A6300E52234FFC583C0E0E521C3958224F3105A
:100A7300AF08858322858221800885832285822190
:100A8300D2AFC8F0A3E9F0A3EAF0A3EBF0A379088F
:100A9300E709F0A3D8FAECF0A3EDF0A3EEF0A3EF8F
:100AA300F0A3D0E0F0A3D0E0F0A3D0E0F0A3E520E2
:100AB300F0A3E5F0F0A322E9799EC608CAC608CBE5
:100AC300C608CCC6C370207996CACBCC7019798E70
:100AD300CBCC70137986CC700EF9802ACA33CACB7B
:100AE30033CBCC33CC331930E7F2CCCBCA335014ED
:100AF3007004EA30E00DE4CA3ACACB3BCBCC3CCC21
:100B0300500209C3E913C6CC182313C6CB18C6CAAF
:100B130018C6F922852283852182E0C0E0A3E0F98B
:100B2300A3E0FAA3E0FBA37808E0F608A3DFFAE06A
:100B3300FCA3E0FDA3E0FEA3E0FFA3E0C0E0A3E08D
:100B4300C0E0A3E0F5D0A3E0F520A3E0A3F5F01007
:100B5300AF088583228582218008858322858221AF
:100B6300D2AFD082D083D0E0F8D0E0321212A0B955
:100B73000003020BAEE4900501785A79128002F06B
:100B8300A3D8FCD9FA7A5A7B1690008678B57901F6
:100B93008015E493A3AD82AE838A828B83F0A3AAEC
:100BA30082AB838D828E83D8E9D9E77582477583BB
:100BB300D47404120F5F7582AE7583287400120F0C
:100BC3005F75F0108E238F248582288583278521E6
:100BD30082852283E0CEA3E0CF852882852783EB1D
:100BE300C9EAC8EDCBECCAC3E833C8E933C9EA3371
:100BF300CAEB33CBC3EA9EF526EB9FF525B350042E
:100C0300AB25AA26EC33CCED33CDD5F0DAAE23AF4A
:100C13002422121218601C12122760171212BE70BF
:100C2300071212B57001D322C0D01212B57006D0CC
:100C3300D0B322C32233D0D0501430E0F6C3E796AA
:100C43000809E7960809E7960809E796B32220E022
:100C5300D5E6970809E6970809E6970809E697B3E2
:100C630022121218601B12122760161212BE70078E
:100C73001212B5600CB322C0D01212B57005D0D0D9
:100C830022C32233D0D0501330E0EBC3E7960809D8
:100C9300E7960809E7960809E7962220E0E4E69735
:100CA3000809E6970809E6970809E69722D083D052
:100CB30082ECC0E0EDC0E0E493A3FCE493A3FDED7C
:100CC3004C600D120DCDEC24FFFCED34FFFD80EFE5
:100CD300E493A3FCE493A3FDED4C600D120E6AECC8
:100CE30024FFFCED34FFFD80EFD0E0FDD0E0FCE419
:100CF30093A3C0E0E493C0E022852283852182E0B0
:100D0300A3FEE0A3F5207808E0A3F608DFFAE0A34A
:100D1300FFE0A3C0E0E0A3C0E0E0A3C0E0E0A3C025
:100D2300E0E0A3C0E010AF0885822185832280081C
:100D3300858221858322D2AFD083D082020F65D0F2
:100D430083D082E9C0E0E493A3C386F0C5F095F0B5
:100D5300F908E493A386F0C5F095F0700BE493A330
:100D6300C3994005E9048002A3E475F002A4258237
:100D7300F582E5F03583F583D0E0F9E493A3C0E091
:100D8300E493C0E022C0E074F2120A5BA2AFE43342
:100D9300FED2AFE589A2E450259005E3E02401F0FB
:100DA300A3E03400F05389EF9005E1E0F8A3E0F904
:100DB300E849600A7900E0F58388821228B3C2C546
:100DC300EEA2E092AF7F01020B17C0E0C3E493965B
:100DD300087401939618400FE49366700808740131
:100DE30093661870007019A3A3C3E4939608740163
:100DF300939618A3A3400DD0E0D0E0D0E0020CEC12
:100E0300A3A3A3A3A3A3D0E0227404800474028049
:100E130000CCC0E0EDC0E0E521C39CCCAD22500185
:100E23001D10AF068C218D2280068C218D22D2AF1E
:100E3300120EE1D0E0FDD0E0FC2274028000CCC0B1
:100E4300E0EDC0E0E521C39CCCAD2250011D10AF05
:100E5300068C218D2280068C218D22D2AF120EBFEB
:100E6300D0E0FDD0E0FC22C0E0C0F088F0E493665F
:100E730070080874019366187000A8F0A3A3700BA0
:100E8300D0F0D0E0D0E0D0E0020CECA3A3D0F0D0BF
:100E9300E022D083D082CCC0E0E493A36006120F9B
:100EA300401470FAE493A360061210611470FAD030
:100EB300E0FCE493A3C0E0E493C0E022CAC0E0E412
:100EC30093A3C582CCC582C583CDC583F0A3C58258
:100ED300CCC582C583CDC583DAE5D0E0CA22CAC0BA
:100EE300E0E0A3C582CCC582C583CDC583F0A3C58D
:100EF30082CCC582C583CDC583DAE6D0E0CA227031
:100F030009080808226016181818C6C333C608C68D
:100F130033C608C633C608C633C6D5E0EA22C008BE
:100F2300C3E096F50808A3E096420808A3E09642BA
:100F33000808A3E09645087001D3D00822C0E0E476
:100F430093A3D39C5010E493A3C39C400AD0E0D056
:100F5300E0D0E0020EB2A3A3A3D0E022C09FF59F8E
:100F6300E473D09F22D083D082C09FE493C0E07407
:100F73000193C0E0740293F59F227404800A740302
:100F83008006740280027401C0E0F404120FB3D02F
:100F9300E01212632200C0D0252110AF08F52150C2
:100FA3000C05228008F52150020522D2AFD0D022B1
:100FB3002521F58210AF08F521400C15228008F594
:100FC3002140021522D2AF85228322BB0102E722F0
:100FD300C082C08389828A83BB0003E08002E493DA
:100FE300D083D08222C0E0C0D0E8C0E0A8A8D2AFAE
:100FF300C2C7E8A2E792AFD0E0F8D0D0D0E0326029
:1010030016080808C6C313C618C613C618C613C6DF
:1010130018C613C6D5E0EA222521F8E43522F922C1
:101023002521FAE43522FB222521FCE43522FD2289
:10103300C3E0C696F608A3E0C696F608A3E0C696F4
:10104300F608A3E0C696F622252110AF08F5214045
:101053000C15228008F52140021522D2AF22C0E0F0
:10106300E493A36C7009D0E0D0E0D0E0020EB2A309
:10107300A3D0E022C3E7960809E7960809E7960894
:1010830009E796A2D265D03322E76670100809E714
:1010930066700A0809E76670040809E76622C3E078
:1010A3009608A3E09608A3E09608A3E096A2D2656B
:1010B300D03322E066701008A3E066700A08A3E04C
:1010C30066700408A3E06622C3E096F008A3E096E6
:1010D300F008A3E096F008A3E096F022C3E697F6A3
:1010E3000809E697F60809E697F60809E697F6224F
:1010F300181818E60846087009E626087005E6334E
:10110300F4220822191919E70947097009E7270981
:101113007005E733F4220922C3E49396087401931C
:10112300960874029396087403939622E026F008B7
:10113300A3E036F008A3E036F008A3E036F022700F
:101143000422600D18C6C333C608C633C6D5E0F4FF
:101153001822E657F60809E657F60809E657F6088F
:1011630009E657F622E627F60809E637F60809E600
:1011730037F60809E637F622E026F608A3E036F646
:1011830008A3E036F608A3E036F622E056F608A3F5
:10119300E056F608A3E056F608A3E056F622E64723
:1011A300F60809E647F60809E647F60809E647F6AA
:1011B30022E056F008A3E056F008A3E056F008A397
:1011C300E056F022E4C396F608E496F608E496F6B1
:1011D30008E496F622C6F4C608C6F4C608C6F4C6E2
:1011E30008C6F4C622C3E09608A3E09608A3E096D7
:1011F30008A3E09622C3E7960809E7960809E7964D
:101203000809E7962275D00075813F752101752283
:101213000500020B6FE6084608C313460833600255
:10122300E633F422E7094709C3134709336002E7AA
:1012330033F422600C08C6C313C618C613C6D5E020
:10124300F422E6F008A3E6F008A3E6F008A3E6F02C
:1012530022E0F608A3E0F608A3E0F608A3E0F622EE
:10126300CAC0E0E6F0A308DAFAD0E0FA22E0FAA373
:10127300E0FBA3E0FCA3E0FD22EAF0A3EBF0A3EC88
:10128300F0A3EDF022E0F8A3E0F9A3E0FAA3E0FB7A
:1012930022E8F0A3E9F0A3EAF0A3EBF022E5C754B8
:1012A300F84401F5C77901222521F582E43522F5B9
:1012B3008322E72719471947194722E626184618B4
:1012C30046184622C2AF75D69F02000022120F684D
:1012D30027D702120F6886D902120F681DDA02128D
:1012E3000F684ADA02120F6897DA02120F681FDBDF
:1012F30002120F68DADB02120F683DDC02120F687C
:1013030081DC02120F681BDD02120F6899DD0212E5
:101313000F68CCDD02120F68DADE02120F68FADE04
:1013230002120F684EDF02120F6836E002120F68D6
:1013330038E202120F68DAE202120F682AE502129B
:101343000F68AEE502120F68B0E802120F68E4EA14
:1013530002120F681CEB02120F687BEC02120F687B
:1013630085EC02120F68D4EC02120F68A6EE02128B
:101373000F6831F001120F68ADF001120F68E0F051
:1013830001120F680EF101120F684CF101120F6880
:1013930087F301120F68A6F301120F68EBF3011232
:1013A3000F6881F401120F68CDF401120F6861F523
:1013B30001120F6839F601120F6895F601120F68D2
:1013C300F3F601120F6870F701120F68A6F7011206
:1013D3000F68F1F701120F6817F801120F68A7F8E9
:1013E30001120F683EF901120F688AF901120F68A2
:1013F300BBF901120F68F2F901120F6878FB0112B1
:101403000F6842FC01120F6812FD01120F688FB2C0
:1014130004120F6875B404120F68D5C004120F6864
:10142300F7C004120F6817C104120F683EC10412FB
:101433000F6885C204120F68A6C204120F686CC33A
:1014430004120F68F27F00120F68F77F00120F6813
:10145300FA7F00120F68EBFD01120F68B2FE011252
:101463000F68D3FE01120F684FE104120F6867E1A2
:1014730004120F68F5FF02120F68B0E104120F683F
:10148300F4DF04120F6804E004120F6813E004127F
:101493000F685CE004120F6857DB04120F68DADB95
:1014A30004120F6840DC04120F68FD7F00120F68FE
:1014B3006EBD04120F687CBD04120F68F5BD0412E3
:1014C3000F68CDBE04120F6890C004120F68BDFFF1
:1014D30002120F6876E104120F6889E104120F68A3
:1014E300E1A404120F680DA504120F6851A704129A
:1014F3000F6891A704120F68D1A704120F68E5A71C
:1015030004120F68FEA704120F68F0A804120F68F4
:1015130095A904120F68A9A904120F6833D60412FF
:101523000F6857D604120F6870D604120F68A2D63C
:1015330004120F68D2D604120F68FFD604120F6884
:1015430061D704120F6870D704120F687AD7041298
:101553000F6887D704120F681BCD04120F683BCDA9
:1015630004120F687ACD04120F6895CD04120F6828
:10157300B4CD04120F681ACE04120F6823CE0412DE
:101583000F6880CE04120F688FCE04120F68B3CE9B
:1015930004120F6874CF04120F6881CF04120F680E
:1015A30092CF04120F68B0FF03120F68C8FF031233
:1015B3000F68F4FF03120F68A97B00120F68FD7C0C
:1015C30000120F680B7D00120F681E7D00120F685A
:1015D300337D00120F68487D00120F685B7D001297
:1015E3000F68CF7D00120F68347E00120F68D67E1D
:1015F30000120F689A7F00120F68AA7F00120F680B
:10160300B97F00120F68E6DE04120F680ADF0412C6
:101613000F6832DF04120F685ADF04120F68C0CF5D
:1016230004120F68E7CF04120F6805D004120F6885
:1016330078D004120F6829C704120F6842C7041236
:101643000F684EC704120F6862C704120F6880C781
:1016530004120F688AC704120F6894C704120F6834
:10166300A7C704120F6831C804120F68A6C8041272
:101673000F68DAC804120F6828C904120F6875C905
:1016830004120F6890C904120F689AC904120F68F4
:10169300C0C904120F6825CA04120F682FDE041292
:1016A3000F6851DE04120F68E4FF01120F687D9486
:1016B30004120F68A79404120F68C49404120F68ED
:1016C300D79404120F68ED9404120F684B9504121B
:1016D3000F68839504120F687B9904120F68C09AF0
:1016E30004120F68F39A04120F68569B04120F68D2
:1016F300CF9C04120F68F79C04120F680C9D041210
:101703000F681C9D04120F68609D04120F68BB9D37
:1017130004120F68CB9D04120F6827DA04120F68B6
:1017230041DA04120F6869DA04120F6882DA0412CC
:101733000F68A6DA04120F68C4DA04120F68DBDA42
:1017430004120F6809DB04120F6824DB04120F680C
:10175300B4E004120F68E9B904120F68F9B904126E
:101763000F68FEBA04120F6830BB04120F6860BB27
:1017730004120F6883BB04120F689ABB04120F682C
:10178300D4BB04120F6839BC04120F687BBC04126B
:101793000F68BABC04120F68EBBC04120F6816BDC5
:1017A30004120F6891D704120F68A3D704120F68AD
:1017B300B7D804120F68BAD804120F6859DD04129F
:1017C3000F688FDD04120F68D1DD04120F68E1DDAD
:1017D30004120F6825DE04120F68FB9D04120F68C4
:1017E3003E9E04120F68A39E04120F68C09E04124B
:1017F3000F68629F04120F686B9F04120F68B09FFB
:1018030004120F68D99F04120F68E69F04120F6831
:1018130061A004120F68ECA004120F6831A1041236
:101823000F687CA104120F68E1A104120F6804A2DF
:1018330004120F6875A204120F68CAA204120F687B
:1018430005A304120F683AA304120F684CA30412F1
:101853000F685EA304120F687DA304120F6886A3AA
:1018630004120F6834A404120F6877A404120F68DB
:10187300B5A404120F685FE004120F68E7D80412DE
:101883000F6811D204120F6847D204120F688FD267
:1018930004120F68E8D304120F68C2DB03120F6847
:1018A300DBDC03120F6815DD03120F68C3DE0312BE
:1018B3000F68F1DE03120F6857E103120F6897E117
:1018C30003120F683BE303120F68CBE303120F68A5
:1018D3001FE403120F68C1E403120F6803E5031248
:1018E3000F6845E503120F68A2E603120F68F0E7DD
:1018F30003120F6827EA03120F6855EA03120F68F1
:101903007CEA03120F6885EA03120F68DCEA03120C
:101913000F6877EB03120F687FEE03120F6806EF71
:1019230003120F689AE104120F688BAE04120F685A
:10193300A1AE04120F6845AF04120F6884AF0412FE
:101943000F68A1AF04120F68D2AF04120F681FB063
:1019530004120F6852B004120F688DB004120F689E
:1019630082B204120F6859DC04120F68B8DC041247
:101973000F68F6DC04120F6837DD04120F6800806D
:1019830002120F680C8002120F686E8002120F6839
:10199300788002120F68098102120F6845810212D2
:1019A3000F68358202120F68828202120F68118358
:1019B30002120F68478302120F68C28302120F6874
:1019C300918502120F688B8702120F6869880212D1
:1019D3000F68878902120F68CD8B02120F68108D72
:1019E30002120F68BF8D02120F685F9202120F6816
:1019F300539302120F68F79302120F681C9402129A
:101A03000F68B89402120F68CD9402120F68F19414
:101A130002120F685F9502120F687C9502120F681D
:101A2300A69502120F683C9702120F685D97021287
:101A33000F68039802120F684B9802120F68A09860
:101A430002120F68409902120F68A49902120F68DC
:101A5300029A02120F68AB9A02120F68199B0212C4
:101A63000F684C9B02120F68BA9B02120F68F59C19
:101A730002120F686B9E02120F68089F02120F6812
:101A830046A102120F68AFA102120F68D9A1021278
:101A93000F68F5A302120F689CA602120F68C5A770
:101AA30002120F68BDA904120F680BAB04120F6872
:101AB300C7AB04120F68CAAD04120F68E2AD04127B
:101AC3000F6808AE04120F6845AE04120F6824E1D4
:101AD30004120F6859B604120F6813B704120F6883
:101AE30079B704120F689AB704120F686BB804121F
:101AF3000F680DC703120F683CC703120F68B4C702
:101B030003120F68B7C803120F6813C903120F68D3
:101B13008ACA03120F68A6CA03120F68F8CA03120F
:101B23000F6836CB03120F6849CB03120F689BCBA8
:101B330003120F6856CC03120F68D0CC03120F6840
:101B4300FACC03120F6832CD03120F68A4CE03122E
:101B53000F687DCF03120F68C6D003120F6899D1A7
:101B630003120F6821D203120F6869D203120F68A0
:101B730083D203120F68CAD203120F68EAD2031288
:101B83000F6880D303120F6806D403120F6860D462
:101B930003120F68A4D403120F6835D703120F681A
:101BA30058D803120F6894D803120F6886D903120A
:101BB3000F68AED903120F68B1D903120F68BBD9EE
:101BC30003120F68CED903120F684DDA03120F68A0
:101BD30083DA03120F68AFDA03120F68D6DA03123F
:101BE3000F68FADA03120F686BDB03120F6879DBF5
:101BF30003120F68ACDB03120F687FDF04120F6858
:101C03008BDF04120F68BFDF04120F68F8FF0212A4
:101C13000F68F3B003120F6816B103120F685CB2BA
:101C230003120F68A5B203120F680DB303120F68F6
:101C33006BB303120F686EB303120F68BAB30312C8
:101C43000F682DB403120F68B5B403120F68B8B44C
:101C530003120F6842B503120F6883B503120F68AE
:101C630066B903120F68FFBA03120F685DBB031254
:101C73000F68D8BE03120F6811C003120F6880C12A
:101C830003120F681EC203120F6829C303120F68E1
:101C93007AC503120F6855EF03120F68FFEF0312A3
:101CA3000F6865F003120F687EF003120F68FAF0F5
:101CB30003120F6850F103120F68A0F103120F68AB
:101CC30007F203120F6880F303120F68AEF40312D6
:101CD3000F6833F503120F6839F703120F68569034
:101CE30004120F688BF803120F684DF903120F6883
:101CF300F6FA03120F689EFC03120F684FFD0312DE
:101D03000F6867FE03120F68008003120F68748068
:101D130003120F68BC8003120F68008103120F685F
:101D2300498103120F68938103120F68CB81031259
:101D33000F68498203120F68A38203120F68F783A7
:101D430003120F68888403120F68E08403120F687C
:101D5300FA8403120F68228503120F68E0D302127C
:101D63000F68E98703120F68088803120F68EC886D
:101D730003120F681C8A03120F68998A03120F68F3
:101D8300E88A03120F68498B03120F68EF8B031263
:101D93000F68BD8D03120F68BD8E03120F683B9051
:101DA30003120F681C9203120F68829403120F68C8
:101DB300329603120F68029703120F68709703128B
:101DC3000F68879703120F687F9803120F686F9944
:101DD30003120F68DA9903120F6830CA04120F68EE
:101DE3007CCB04120F6839CC04120F689DCC04120B
:101DF3000F6803C404120F681EC404120F6862C480
:101E030004120F6888C404120F68AEC404120F686A
:101E1300C6C404120F6829C504120F683EC5041214
:101E23000F6861C604120F686AC604120F6873C68E
:101E330004120F687CC604120F6886C604120F686A
:101E430050FB02120F684FFF02120F6854FF021279
:101E53000F6856FF02120F68C0D404120F68F8E02F
:101E630004120F68F2AB02120F6825AC02120F685E
:101E730091AC02120F682CAD02120F68C9AD0212A9
:101E83000F680EAE02120F6830AE02120F6849AE31
:101E930002120F686FAE02120F6891AE02120F6842
:101EA300CFAE02120F6813AF02120F6835AF0212E2
:101EB3000F6897AF02120F685EB002120F6815B178
:101EC30002120F6887B102120F6852B202120F6832
:101ED300A5B202120F680BB302120F6845B30212C8
:101EE3000F6897B302120F6805B402120F6870B43B
:101EF30002120F6873B402120F68F4B402120F686F
:101F03008BB502120F680BB602120F682AB60212C3
:101F13000F688EB702120F689BB702120F68A7B83B
:101F230002120F68B4B802120F68BDB802120F682C
:101F330095BA02120F68AFBB02120F6828BC0212D7
:101F43000F689ABC02120F68BCBC02120F6850BD26
:101F530002120F6824BF02120F68FBC202120F683D
:101F63000FC302120F681FC302120F6829C30212A4
:101F73000F6832C302120F683BC302120F6845C3D6
:101F830002120F6872C302120F689BC302120F681A
:101F9300A6C302120F68CAC302120F68EEC302126D
:101FA3000F6858C402120F689EC402120F68BBC4A4
:101FB30002120F6838C502120F686FC502120F684C
:101FC300AEC502120F68FBC502120F6881C602126A
:101FD3000F684FC802120F68D2C802120F68B6C941
:101FE30002120F681DCC02120F6876CC02120F6822
:101FF300C0CC02120F681BCE02120F6850CE021221
:102003000F68A2CE02120F6857CF02120F6806D0D4
:1020130002120F6843D002120F68D8D002120F6861
:1020230044D102120F68AA2E00120F68DC2E001290
:102033000F680A2F00120F68E03000120F68C031DA
:1020430000120F68183200120F68533300120F6822
:102053009F3300120F68C83600120F68BB39001295
:102063000F680B3B00120F68A13B00120F68AD3BDA
:1020730000120F68DF3B00120F68623D00120F6809
:10208300133F00120F68A73F00120F68EA3F0012C8
:102093000F68684000120F68854000120F68B54052
:1020A30000120F68EA4000120F68BA4100120F686D
:1020B300634200120F68E94400120F6809460012D8
:1020C3000F68F44600120F68764700120F68AA4B98
:1020D30000120F68E74B00120F683F4C00120F68A5
:1020E300724C00120F68DC4C00120F68124D001284
:1020F3000F689D4D00120F68F54D00120F68CC4E0E
:1021030000120F68854F00120F68205000120F68ED
:10211300285300120F68445400120F68E757001247
:102123000F68DB5800120F68DE5800120F680D5954
:1021330000120F68135B00120F68EC5B00120F684C
:102143002F5C00120F68855D00120F68C45D0012DA
:102153000F684D5E00120F68815E00120F68465FC4
:1021630000120F685E6100120F68CF6100120F68E2
:102173000F6200120F689D6200120F68BF630012A6
:102183000F68816400120F68886600120F68A066EA
:1021930000120F68B46600120F68EC6600120F6835
:1021A3001A6700120F68996800120F68BE6900125F
:1021B3000F681B6A00120F68CD6A00120F68F46A79
:1021C30000120F68BB6B00120F68536C00120F688C
:1021D300796E00120F68AE6E00120F68116F001255
:1021E3000F68407000120F68E87000120F681971D1
:1021F30000120F68317100120F68C07100120F686E
:10220300747400120F684C7600120F68687600121F
:102213000F68847600120F68527700120F68457BAF
:1022230000120F68058701120F68378701120F68C4
:10223300268B01120F68728B01120F68B88B011283
:102243000F685A8C01120F68B68C01120F68FB8C51
:1022530001120F68428E01120F68568F01120F6828
:10226300459301120F68C99301120F68D6940112A6
:102273000F68329501120F68229701120F68979722
:1022830001120F68A19701120F68AE9701120F6830
:10229300D99701120F68C09801120F686A99011249
:1022A3000F68E89901120F68089A01120F68319AB2
:1022B30001120F68539A01120F68B39C01120F6841
:1022C300799D01120F68BE9D01120F683B9E01129A
:1022D3000F68EC9E01120F681E9F01120F68649F26
:1022E30001120F68A09F01120F68F09F01120F687F
:1022F30044A001120F689AA001120F68E6A0011210
:102303000F6853A101120F68CEA101120F6899A3A0
:1023130001120F6899A401120F68BEA501120F687C
:10232300FDA801120F6810AC01120F68CDAC0112A9
:102333000F6811AD01120F68C1AE01120F68D5AE5F
:1023430001120F68DFAE01120F68E9AE01120F68C8
:10235300F5AE01120F6811AF01120F68BCAF011285
:102363000F68FBAF01120F6805B001120F680FB0C1
:1023730001120F687FB001120F68CAB001120F6813
:10238300DFB101120F683BB201120F68BCB2011238
:102393000F687BB301120F6884B401120F68B8B5DC
:1023A30001120F68A6B601120F68BEB601120F68BC
:1023B30019B701120F6837B701120F687FB70112FF
:1023C3000F68A6B701120F6841B801120F6807B969
:1023D30001120F6899B901120F6813BA01120F683D
:1023E3002DBB01120F68DABB01120F6802BD011287
:1023F3000F6852BD01120F68B6BD01120F6818BEF7
:1024030001120F6846BE01120F686ABE01120F68FF
:102413009FBE01120F68D0BE01120F6803BF0112E5
:102423000F6823BF01120F688BBF01120F687FC0B3
:1024330001120F68DAC001120F6803C101120F689D
:102443008BC101120F680EC201120F6839C201124B
:102453000F681EC301120F683BF002120F6873F07E
:1024630002120F6894F002120F68D6F002120F687E
:1024730038F102120F6842F102120F6852F1021290
:102483000F688DF102120F686DF502120F685AF78B
:1024930002120F6840F902120F68D7F902120F688F
:1024A30079FA02120F6820C501120F689EC5011246
:1024B3000F68FAC501120F6845C601120F6860C69E
:1024C30001120F688BC601120F68A8C601120F68AC
:1024D300B4C601120F684BC801120F6864C8011219
:1024E3000F68E9C801120F68FCC801120F681BC905
:1024F30001120F68BFC901120F6840CB01120F68A8
:10250300F3CC01120F6889CD01120F688CCD011233
:102513000F68FCCD01120F681ACE01120F68B1CEFD
:1025230001120F68F9CE01120F68FCCE01120F6879
:10253300C2CF01120F682FD001120F6855D00112BC
:102543000F68E0D001120F68FED001120F6844D16A
:1025530001120F68F8D101120F6842D201120F68FD
:1025630071D201120F68CED201120F6803D3011288
:102573000F682FD301120F683DD301120F688AD35E
:1025830001120F68FAD301120F6843D401120F68C6
:102593008FD401120F68BBD401120F68C6D4011285
:1025A3000F68E4D401120F68CFD501120F68D9D593
:1025B30001120F6814D601120F6824D601120F6896
:1025C3002DD601120F6881D601120F6895D601121C
:1025D3000F68C4D701120F68D9D701120F6867D8E3
:1025E30001120F68ACD801120F6838D901120F68B5
:1025F30043D901120F6885DA01120F68A0DA0112BC
:102603000F68ECDA01120F685BDB01120F6894DBD1
:1026130001120F68AEDB01120F68F0DB01120F68C5
:10262300C0DE01120F686DDF01120F68DADF0112DD
:102633000F681AE201120F6832E201120F6835E2E5
:1026430001120F6841E201120F6855E201120F688F
:102653005DE201120F6890E201120F6892E301122A
:102663000F6819E401120F6889E401120F680BE582
:1026730001120F68CCE501120F68EBE501120F6838
:102683008CE601120F68E9E601120F68ECE601120D
:102693000F6860E701120F68AFE801120F68B5E930
:1026A30001120F6840EA01120F685BEB01120F6819
:1026B30023EC01120F6854EC01120F6877EC01123E
:1026C3000F6880EC01120F68AFEC01120F683FED49
:1026D30001120F68F5ED01120F686AEE01120F681F
:1026E30011EF01120F6886EF01120F68BDEF01129F
:1026F3000F68FBEF01120F68429004120F68A18F5D
:1027030004120F68A58E04120F68CF8D04120F6890
:10271300D88B04120F682B8B04120F68BD8A041226
:102723000F68C3B003120F68B9B003120F684EB03D
:1027330003120F68A2AE03120F6821D302120F68AF
:102743007ED202120F6860AE03120F6880AD0312CF
:102753000F683DD202120F681ED202120F686AADD3
:1027630003120F682BAD03120F6886AC03120F68B8
:1027730080A903120F686EA703120F683BA7031209
:102783000F68D6A603120F6869A603120F6828A65E
:1027930003120F6861A503120F68FCA403120F68EC
:1027A300A7A403120F684AA403120F6821A30312FC
:1027B3000F68BEA203120F6808A203120F6803A2D8
:1027C30003120F68F7A103120F68AA9E03120F6882
:1027D300849E03120F68299E03120F68EBD1021225
:1027E3000F68D6D102120F68ABD102120F6837946B
:1027F30004120F68FF9304120F68A89304120F6862
:10280300119204120F68D49D03120F68959D031251
:102813000F68829D03120F68539104120F68779D0E
:1028230003120F68539D03120F68629B03120F6814
:10283300E19A03120F68B69004120F689D9A03126F
:102843000F687A8503120F68719A03120F685F8A03
:1028530004120F68218A04120F68F48904120F68A6
:10286300C08904120F685F8904120F684789041234
:102873000F68238904120F68EC8504120F68B8836C
:1028830004120F689F8104120F682E8104120F68CF
:10289300DD8004120F68978004120F68AC90041255
:1028A3000F68008004120F68E2F70300000080FB4A
:1028B300E4738F000100F31687000100F116350061
:1028C3000400BA1625000200BE1626000200C01638
:1028D30027000200C21628000100CC1629000100BF
:1028E300CD16840004004A148600010068162A00ED
:1028F3000100CE162B000100CF162C000100D316C9
:102903002D00080056142E000100D4162F000100DC
:10291300D51630000100D61631000100D71632005B
:1029230001005E14330001005F1434000100D81667
:1029330036000100601438000100D9163900010087
:10294300D21683000200EF16630001006C146400CA
:102953000100D01665000100D1166D0001006D1451
:10296300710008004E1466000100EE1643000100DA
:10297300DF1644000200E01645000100E21646009F
:102983000200E31647000800641448000100E5163E
:102993004B000100E61604000100F216A10001003D
:1029A300F61637000100F51688000100F4163C0006
:1029B300010061143D000100DA1649000200E71628
:1029C300670001006E144D000200E9164E0001007D
:1029D300EB164F000200EC163E000100DE1651001C
:1029E3000100621452000100DC1653000100DD16E1
:1029F300540001006314000000000000000136369B
:102A030001010001020100010301000104010606A6
:102A130005020000070100340801000F0904010149
:102A23000D0100FF0E08000017020000190100FF4E
:102A33001A0100011B0100FE1C0100081D02000019
:102A43001F01000120010001210200002301000FEA
:102A5300240200002601000127010008280200FFCC
:102A63002A0100072B0102402C0100002D01000167
:102A73002E0100012F0100FF30010B1D3108000062
:102A83003A0100083B01000F3C0100013D0100FF3A
:102A93003E04000042040000460400004A04000013
:102AA3004E04000052040000560400005A040000C3
:102AB30000000000200103870000010020010487BB
:102AC300000002002001FF860000030020010087B0
:102AD300000004004201D3850000050042019385F4
:102AE3000000060042014585000007003001018710
:102AF30000000040200104870000FDFF2101FB8648
:102B0300000401F021053C13000402F023053E13E9
:102B1300010400F021238E16010401F01023941602
:102B2300010402F010239516010403F020239616E6
:102B3300010404F030239716010405F023239016B3
:102B430001037103010301030103010301032203D1
:102B53000203010310030003000300030003000347
:102B630000030003420300032403060300030003DE
:102B7300040312032503230325032303040304038C
:102B830000030003000344030003000323030003C3
:102B930065032100350381030003050300030003DC
:102BA3000003000325032303010171010101010156
:102BB30011010101310101010101800110016101D4
:102BC3003B001400630173017201620143010001C0
:102BD300130106013D01350004011201000100014A
:102BE3000001000104010401330133013C014401EC
:102BF3003201360000010001650100013500810149
:102C0300000105018201830100010300710030010D
:102C13006000110070003102200350048000100096
:102C2300610000001400630073007200620043003F
:102C33000000130006000000000004001200000062
:102C430000000000000004000400370037003C02CD
:102C53004400000000000000000065000000350093
:102C630081000000050000008300000003027102E0
:102C730030016002110270020102020202028002AC
:102C8300100261023A00410063027302720262029F
:102C9300430200021302380000020002040212027F
:102CA300000200020002000204020402370037009F
:102CB3003C024402000239000002000265020002E5
:102CC30035028102000205028202830200023600FD
:102CD3000100060000000F000000000000000000DB
:102CE3000000000003FFFF00000403FFFF0000FFDC
:102CF300FF0FF4010005C4040320000100000B00D2
:102D03000000000000000003010F000000000000AD
:102D130000000000000000000000000000000000B0
:102D2300000000000000000000000000621A8C1A7E
:102D3300681A9C196E1A921A6E1A9E1A741A9C19A2
:102D43006E1A921A7A1A9C1900000000801A9C19B4
:102D53000000000000000000861A9C19000000001B
:102D63000000000000000000000000000000000060
:102D73000000000000000000000000000000000050
:102D830000000000000000000000C01C0100C01C87
:102D93000200361C0280301C03003C1C0400421C51
:102DA3000480481C05004E1C06005A1C31006C1C94
:102DB3003300721C3400781CFFFF000007ECFDFD9C
:102DC300FDECDCDCCCBCACAC9C9C8C7C7C6C6C5C8F
:102DD3005C5C4C4C3C3C2C2C1C1C0A9C2202662246
:102DE300057222076C220C4E220D5A22FF000000AE
:102DF300160F00000B150B020002220F3300000E0A
:102E03000F5A6967426565416C6C69616E63653031
:102E130039D0D1D2D3D4D5D6D7D8D9DADBDCDDDEDD
:102E2300DF150AF4D4C0A595827263615550490039
:102E3300034D4C4651181A250502000119161816A0
:102E43001618230300303016181920231A1C1E30BD
:102E5300303017181921301B1D1F30003C40423AF7
:102E63003F3F392F47300C0E020B040B0A070800B3
:102E73000F02040201010101090200BE040AE80372
:102E83000000E8030100F6FB242E0300BF2D0E0013
:102E930010030A0C040408040328020C051E081579
:102EA300FF00FF0412091EC082C083121372901424
:102EB30097743EF0A37420F09014997444F0A374B3
:102EC30020F090149B744AF0A37420F090149D7426
:102ED30050F0A37420F0025BE574F71209EF90142D
:102EE3008BE4F0E990148AF07C647D147A8C7B1473
:102EF3001219789016E5E0901494F0901495744E9E
:102F0300F0A37414023E7274F01209EFEAFEEBFFB1
:102F13005480700302307B90148A123F07700302BF
:102F23003074EA241B125772707CEA241F12577202
:102F330064137002A3E0706E8A828B831230C9908F
:102F430014A5124D04750A00750B00800D123D483F
:102F5300126DE4121894AA0EAB0FEA4B60488A82F2
:102F63008B83E0650C7004A3E0650D702C8A828B63
:102F730083A3A3A3A3E0F50EA3E0F50FE50A450B96
:102F83008A828B83A3A3A3A360C312404A850A82C8
:102F9300850B83A3A3A3A380B78A0A8B0B8A828B97
:102FA30083124D0080B4E508242A125772FCE50809
:102FB3002402F8E43509F9E8FAE9FB9014A5123183
:102FC300B0A3A3E06402703C8A828B83124D048019
:102FD3000B88828983A3A3A3A312404AE849601FF5
:102FE30088828983E06A7003A3E06B70E488828936
:102FF30083A3A3E06C70DA9016EB125AA2806BECF9
:10300300F912207A850882850983E06401704FE50F
:103013000824181230B2120F8912638C120E0CE5B9
:103023000824121230B2120F89E508123EFB120F68
:1030330085E508240B126390120E10E5082417127D
:103043003E98E5082402FCE43509FDE5082419FA55
:10305300E43509FB122884740A120F98800CE0648B
:10306300027007AA08AB09122158AA08AB09121764
:10307300FEEEFAEF6480802DEA5402600C9016FA9B
:103083007401F0EA6402FA8023EA5408601A1220F9
:1030930074EA4B700B9014A71262677A081230BF60
:1030A300EE6408FAEFFB80047A007B00026A16F5EF
:1030B30082E43509F583E0F50A780A22FB90148A45
:1030C300E0F912194E22A3A3E0F50CA3E0F50D22BB
:1030D3007B0090148AE0F912194274042274F412EA
:1030E30009EF8A088B098A828B83A3A3A3124AFC64
:1030F300123EA338F583E02409FA1269AE70030285
:1031030031A38A828B837402124B718508828509ED
:10311300831231B0E8F0A3E91266288A828B83A375
:10312300A3A3A3A3A3A3A3F0E5082403F8E4350909
:103133001231A5123EA33AF583E08E828B83A3A3BB
:10314300A3A3F0EE2409FAE43FFB8E828F83A3A3AB
:10315300125D54F5838882E0A2E58E828F83A3A358
:10316300A3A3A3500474018001E4F0E5082403F54C
:10317300828983124D04EA1252853BF583126975E5
:10318300120F81123EA23B125E468E828F83A3A34F
:10319300127B24120F98EEFAEFFB90148A1269FB4C
:1031A3008016F98882F583E0FAA3E0CA22124EA1C1
:1031B300A3A3227402120F987F04020CFC74F21270
:1031C30009EF8A088B09ECFAEDFB740E1212ABE0DF
:1031D300FC1213A88A0C8B0DAE0CAF0DEA4F6030B6
:1031E300AC08AD09121396E96026AC08AD09EEFAF6
:1031F300EFFB12139CE970148E828F83124037FA0F
:10320300EFFB121390AA08AB091213C079008002D6
:1032130079B4024DF074F01209EF74F612104BEA10
:10322300FEEBFF8C088D09750FB385218285228300
:10323300E4F0750E008002050E902E9AE493F8E5F3
:103243000EC398400302333FAA0E7B001213E48A95
:103253000A8B0BEA4B60E08A828B83A3A31233466B
:1032630028F0F8C3EE98EF940050CC7C157D0079DC
:1032730000AA08AB091217E6850A82850B83A3A36C
:10328300A3A3126E21E0F8EEC3982925E0F8E433F6
:10329300F9E50A28F582E50B39F583A3A3A3A3A3D4
:1032A300A3123EADA31258C98A0C8B0DAC0CAD0D05
:1032B300AA08AB09121978850A82850B83A3E064F7
:1032C30001700A12638C7401123EBF8044740112B0
:1032D300102B850A82850B83124D021213CCE960F1
:1032E3003D74091212ABE0C0E012638CD0E0F074BD
:1032F300091212ABE064037013740112102BE5087A
:10330300240BFAE43509FB121978801274011212A6
:10331300AB12404AE5081258AF3509126DE2850A2F
:1033230082850B83126398123EBFA3A3E0C0E0E53E
:10333300082414126390D0E0F0750F00A90F740AEB
:10334300026A13A3A3A3E0F8852182852283E022E6
:1033530074F71209EFE9FE8A828B83A3A3A3A3A3C5
:10336300A3E0540860338A828B83A3A3A3A3A3A3FC
:10337300E0540260218A828B83A3A3A3A3A3A3A304
:10338300A3A3E06406600F74E96E600A74CD6E60F7
:103393000574F06E700312205C0246EF74F012099C
:1033A300EF74EF12104B740F1212AB12614B7408CF
:1033B3001212ABE9F0ECFEEDFF74051212AB1244EE
:1033C300B71246DBA3E0F91213B474061212AB1260
:1033D300614B74061212AB125316700302365A1263
:1033E3003EE7E0FA74061212ABE0F9121F9C1236A4
:1033F300BAF8A3E0F9E849700302365AEE2403F55C
:103403000AE43FF50BEE2406F508E43FF5097C00DA
:10341300850882F583124D04850A82850B83E0F9C2
:103423001213BA74031212AB12614B850A82850B15
:1034330083E0C0E08521828522831236B3D0E01277
:10344300542BF9852182852283123D4F124F7D1221
:103453003349FAA3E0CA2407F582E43AF583E8F096
:10346300A3E41261562406F582E438F583E4126D71
:10347300EE124AF0120F81EE123EA33F125E467423
:10348300031212AB124AFC2409127B1E120F98740A
:10349300291212AB126E1B1231AA12543E3A126D4C
:1034A300E2742B1212ABE0C0E085218285228312E5
:1034B30052DDD0E0F074021212ABE4F07425121264
:1034C300AB78081212540235B174031212AB125EB8
:1034D3000E8882F5831236A2A3A3A31258D4FB123B
:1034E30013D2850E82850F83A3EAF0A3EBF0740356
:1034F3001212AB1236B3A31236A2125AE3A2E6504B
:103503000F850E82850F83A3A3A3A3A3E0D2E1F0CB
:1035130074051212ABE0706B850E82850F83A312C4
:10352300404A9014E5E0687003A3E0697055850E86
:1035330082850F83A3A3A3123E82750C00780C121D
:103543000F897808120F7D74291212ABE0F50C78FD
:103553000C120F8974271212AB120E109014F21270
:103563000E10790074191212AB124CD41221A074EC
:103573000A120F98850E82850F83A3A3A3A3A3E04A
:103583004405F074021212ABE004FC8E828F8312A6
:103593004CFE8E828F83A3A3A3E0F91213BA7403A4
:1035A3001212AB12614B74021212ABE004F07403FB
:1035B3001212AB125316606774021212ABE0FA7464
:1035C300061212AB12404AC3EA98E49950517402AE
:1035D3001212AB12398C852182852283E028F8A34D
:1035E300E039F9E8240FF50EE439F50F850E82F57D
:1035F30083E4F074031212AB1236AD64016003026C
:1036030034CC74051212AB7401126A01F074031204
:1036130012AB125BD51239AFE8F0A3E90234F0859F
:103623002182852283124D04121FA28521828522C5
:1036330083120E1074261212ABE0FD74251212AB26
:10364300E0FC740A1212ABE0F9EEFAEFFB1220561B
:103653007402120F9880438E828F83A3A3A3E0C0CA
:10366300E0740C1212ABD0E0F012686AE0C0E074B0
:103673000D1212ABD0E0F074061212AB1253167097
:1036830009740E1212AB74B98007740E1212AB7464
:1036930010F0740912102312219A7411026A13E0B4
:1036A300850E82850F83A3A3A322E0125403E02295
:1036B300E0125403A3A322852182852283EAF0A387
:1036C300EB12531F2274F01209EF74E112104B74C2
:1036D300041212ABE9F074031212ABECF074021291
:1036E30012ABEDF08A0E8B0F742F1212AB1230CB8C
:1036F300AA0CFB121F9074011212ABE9F0AA0CABD7
:103703000D121F9674011212ABE070030239878504
:103713002182852283E480158E828F83A3A3A3A3B2
:10372300A3E0D2E3F0852182852283E00412695964
:10373300F8852182852283E0C398400302397E7491
:10374300011212ABE0700302397E85218285228348
:1037530012398CE50C28F8E50D39F9E8240FFEE45D
:1037630039FF8E82F583A3A3A3A3A3E0A2E040B510
:10377300750800750A08750B0074021212ABE0603D
:10378300037508207C087D0079007405121023124C
:1037930017E68E828F83E0603E901535E0640170FA
:1037A3001AE508D2E3F508750B1012399C1212AB17
:1037B300E8F0A3E91257C774FF807643080C750A33
:1037C3000C8E828F83A31239A7126DE47405121233
:1037D300AB74FFF0A3805A74041212ABE06009E5E6
:1037E30008D2E6F508750A0A8E828F83A3E064FE89
:1037F3007003A3E0F4703074121212AB74041263FA
:10380300B6F8741D1212ABE8124B71741212102326
:10381300121EBE7D007C00790074151212ABAA82C1
:10382300AB83121CA8800B12399C1212ABE8F0A3D5
:10383300E9F074071212ABE508F0123EDEC0E07443
:10384300091212ABD0E0F0740A1212AB7401F074D7
:103853000512102312215E74111212ABE0600302F1
:10386300395C740D1212AB1254268E828F83A3A37C
:10387300A3A3F0740D1212AB124B3FE50AF0A3E5BC
:103883000BF074031212ABE0C0E0124AD0D0E01286
:103893005AE36011901535E0C0E0740D1212AB12BB
:1038A3004B1AD0E0F0740D1212AB12404A850C8211
:1038B300850D83A3A3A3A3A3123995241C126145E9
:1038C300126DFE123997125A9539126889C0E012A7
:1038D3004AB7D0E012694EC0E0740D1212AB124524
:1038E300FDD0E012664FC0E0740D1212AB1245F327
:1038F300D0E0F0740D1212AB1239A7123995242AB5
:10390300126145850E82850F83A3A3A3A3A3A3A35B
:10391300A3E012613E123ECDC0E01245DFD0E0F0DD
:10392300740D1212AB124D04850E82850F8312693A
:10393300642428F582E43B126DE2123ED6126975C7
:10394300120F81125E3FEA1260D73B127B22120FE5
:103953009874051210231221648E828F83A3A3A36C
:10396300A3A3E0D2E0F074111212ABE060030237BC
:103973001B74011212ABE0140237277900AA0CABB7
:103983000D122062741F026A13E075F007A4F8A9F0
:10399300F022A3A3124D08E8228E828F83A3124044
:1039A3004E740522E01239AFA3A3A322F8A3E0F9D2
:1039B300850E82850F83A32274F01209EF74E81237
:1039C300104BE9852182852283F08A0E8B0F8A8230
:1039D3008B83A3A3A3A3A3A3A3A3E0F9121FBA8A70
:1039E300088B09EA4B7003023A98E50E12529912BA
:1039F3003EF6123E8D852182852283E06003023AE2
:103A03009B7C04850E82850F83A3A3A3A3A3A3A3F7
:103A1300A3E0F9121FC0EE4F607B8E828F83A3A3B6
:103A2300A3A312404A74071212AB12627C12404ADB
:103A330074091212AB124BA1C0E074111212ABD075
:103A4300E012662DA3A3A3A3A3A3A312404A740F5A
:103A53001212AB126DE474121212ABE4126A09C8AB
:103A6300241FF582E438F583125E0AC4131354034A
:103A7300FC70027C048E828F83E0F97808120F8534
:103A8300742059FD744059F97403121023122056FF
:103A93007402120F98026A117C08850E82850F83C7
:103AA300A3A3A3A3A3A3A3A3E0F9121FC08B0BEAB1
:103AB3004B7003023A19EE4F60DB85218285228326
:103AC300E0F50C780C120F89850882850983A3A37E
:103AD300A3A3A3A3A3E0F50C780C120F898A828B0E
:103AE30083A3A3A3E0FB8A82850B831276418A8298
:103AF300850B83E0FA8E828F83A3A3E0F912288AD1
:103B03007402120F98023A1D74F71209EF74FA1235
:103B1300104BE9FE780179017F00800379000F12D1
:103B23004E80E0FCEFC39C5026EF75F007A4FC85A4
:103B3300F008AD08EA2CFCEB3DFD12446FE0A2E077
:103B430050DA540C60D6E0A2E250D3780080CF8ADA
:103B5300828B83A3A3A3A3A3A3E0703DE9A2E040C8
:103B63000574016E70338A828B83A3A3A3A3A3A3DB
:103B73007401123E5FE0C0E074031212ABD0E01296
:103B830044CEE0C0E074041212ABD0E0F07405122E
:103B930012ABE8125DA912219A74060246ECC082A8
:103BA300C0837901122062025BE574F41209EFEA23
:103BB3004B9016FA6019E4F08A088B09F50AF50BA5
:103BC3007808120F7D7A021230D3120F98800A748C
:103BD30001F07A027B001230C00231BB74F012098B
:103BE300EF74F312104B74031212ABE4F0A3F090D2
:103BF30014A5123E8D74011212ABE4F0A3124B769E
:103C030004F09014DFE0A2E35003023CD2123E53CF
:103C130074091212AB12129474091212AB780812BF
:103C230012549014A7780812103374051212AB784B
:103C330008121245123D5674051212AB7808121180
:103C4300E850077A017B00023D4374051212AB78FA
:103C53000C1212549016EAE0F509780C790812094F
:103C630080A80CA90D9016EBE0C398E4995003E0EB
:103C73008001E8852182852283F074091212AB78D2
:103C830008121254C008C009C00AC00B74051212EE
:103C9300AB780C121254123D56780C790812098035
:103CA300E4F50AF50BD00FD00ED00DD00C780C79BB
:103CB300081210DF9014A7780C1212458011123DE0
:103CC30048126DE4EEFAEFFB121894AE08AF09EE5A
:103CD3004F60658E828F83123346C398502DEE2436
:103CE30003F8E43FF9E0FA88828983E0C39AF0603D
:103CF3002374031212AB1241B074011212ABEEF033
:103D0300A3EF126297FEA3E0FF80C48E828F83A38A
:103D1300A3A3E4F08E828F83127ADB74011212ABB9
:103D23001253168E828F83A3A3A3A3609112627092
:103D33001212AB123D4F808974031212AB124D0461
:103D4300740D026A1312404E9014A522125E35A31D
:103D5300A3A3229016E9127AE3E4F50AF50B227481
:103D6300F01209EF8A088B09890A78007900901408
:103D7300A5123E8DFBEE4B601E088E828F83A3A39C
:103D8300A3A3124CCE601008E87001098E828F83C2
:103D9300123E89EA4F70E39016EC124D04C3E89A81
:103DA300E99B4003023E467A06123E49A80CA90D40
:103DB300EA497003023E468A828B83E508F0A3E555
:103DC30009123E68E50AF09016EB124E88123E5F28
:103DD300A3E4F0A3F09014A5124CCE600D8E828F55
:103DE30083A3A3A3A3126DE480179014A5126DE41B
:103DF3009014DFE0A2E34009123E539014A712127D
:103E0300949014DFE0A2E3503A7A087B0090148A7E
:103E1300E0F9121954EA4B4C4D70289016E9E0F57D
:103E230008A3E085080CF50DE4F50EF50F780C12E8
:103E33000F7D7A087B0090148AE0F9121948740404
:103E4300120F98026A167B0012188E8A0C8B0D22B1
:103E5300121960EAF8EBF9ECFAEDFB22123E632249
:103E6300123E68A322F08A828B83A3A322E508F083
:103E73000246EFF08E828F83A3A3A3A3A3A32212F0
:103E83005780A3A3F022A3A3A3A3E0FEA3E0FF22F2
:103E93007F05020CFCF582E43509F583E0F922EA9B
:103EA300123EA7222410F582E422123EB5A3A3A357
:103EB300A32212405285088285098322123EC3221F
:103EC300F0850A82850B83A3A322E50E2411123EFB
:103ED300F3E022E50E240E123EF322E50E24101227
:103EE3003EF3E022123EEB22EE123EA73FF5832281
:103EF300F582E4350FF58322240FF50AE43509F53D
:103F03000B780A22E0F91218108A088B09EA4B226F
:103F130074F21209EF890B8A088B098A828B831248
:103F23004D04122086EA4B600479B8806A1220920D
:103F3300E9F8902E93E493F9E8C399400479B280A9
:103F4300567A15123E49AE0CAF0DEA4F7004791044
:103F530080458A828B83E4F0A3123E68E50BF075FB
:103F63000A007808120F817C127D00EA240312698B
:103F730020120F989014AB12531670089014AB8054
:103F83000C12404A88828983123F9D70F4EEF0A39D
:103F9300EFF01220A47900024DF0124D08EA4B888D
:103FA30082898322C082C0839014AB80048C828D6B
:103FB30083127642EC4D60288C828D83A3A3E06943
:103FC300600574FF6970E68C828D83A3A3A3E06A06
:103FD3007003A3E06B70D6EC2403FAE43DFB80048A
:103FE3007A007B00025BE574F71209EFE9FD74FECA
:103FF3006D70047C0180027C009014AB80096D70AD
:10400300027C0188828983125316601F8882898308
:10401300A3A3A3E06A7003A3E06B70E7ECA2E088BC
:10402300828983A3A3E050D6F9800279FE0246EF8A
:10403300EEF9800CA3A3127AE3EE227402120F9816
:104043007F02020CFCF58312404E2212405222E002
:10405300F8A3E0F9221240528E828F8322120F9826
:104063007F03020CFCC082C08379009014AB8001F3
:1040730009E0FAA3E08A82F583E582458370F102C1
:104083005BE574F61209EFE4F508F5097808120FF9
:1040930085902E93E49375F013A4A9F01241A51211
:1040A3006E42120F98E9FE74096E700312209E028D
:1040B300403374F61209EF74FE12104B852182858A
:1040C3002283E4F0A3F0A821A922880889097808AB
:1040D300120F857508027509007808120F85126A98
:1040E300B3120F9802403E74F51209EF74EB1210ED
:1040F3004B852182852283E4F0A3F09014AB807476
:104103008E828F83A3A3E0C0E074021212ABD0E0CF
:104113001257C7A982AA8389088A09750A007808F1
:10412300120F817C127D0074061212AB126E0712FD
:104133000F98740212101B880889097808120F85DA
:104143007508137509007808120F8574041212ABF1
:104153001252B975F013A4F8AAF075F013E91241DD
:10416300A1126ABB120F988521828522831241B066
:104173008E828F83123E8DEE4F7085A821A92288EF
:104183000889097808120F857508027509007808EF
:10419300120F85126AB3120F987415024060A42A95
:1041A300F9E82402FCE439FD7A427B0022E0240191
:1041B300F0A3E03400F02274F41209EF74EB121050
:1041C3004B7E007F00A821A922880889097808125C
:1041D3000F857508028E097808120F857C007D0013
:1041E3007A42126E4E120F98E9706C8E08805674E4
:1041F3000212101B880A890B780A120F85750A139D
:10420300750B00780A120F85E50875F013A4F8AA58
:10421300F075F013E5091241A1126E50120F98E9DF
:10422300701B74031212ABAA82AB8374021212AB1B
:10423300E0F9122080E970050EEE70010F0508E524
:10424300087002050985218285228312404AC3E54D
:104253000898E509994098EEFAEFFB74150231B816
:1042630074F61209EF8C828D83A3A31244BCF0EA87
:104273001260DD3BF583E0C0E0124479D0E0F0EA60
:10428300241DF582E43B12404812445D1244B7F00A
:10429300A3F0EA241FF582E43BF583123E8DEC1272
:1042A30044503DF583EEF0A3EFF01244563BF58303
:1042B300124487A3A3A3A3A3A3EEF0A3EF125D3835
:1042C300FE8C828D831244C674035EFEC394034046
:1042D30003024443EE600874026E60030243688C79
:1042E300828D83E0540CFE740C6E70030243A7E0CE
:1042F300A2E4400D88828983E08C828D83A31244DB
:10430300DC74086E60030243A71244677401F08AE9
:10431300828B83A3A3A3A3A312578D70148C828DC6
:1043230083E0440C1244CEA3A3124487EEF0A3EF20
:10433300F08C828D83E0A2E4402B88821244951294
:1043430044AA500109F582124495A3A3A3A3A3A3EE
:10435300F0A3EF1244D68C828D83A3A3A3F0E824A9
:1043630003F850010988828983E0C0E0EC2411F549
:1043730082E43DF583D0E01244C68C828D83E0A2B3
:10438300E7507588828983E0FE8C828D831244DC3A
:1043930074FC5E700C8C828D83A3E0540364037001
:1043A3001E024443124467E4F0740C6E600302433C
:1043B30012888212449B1244AA5001090243348C8E
:1043C300828D83A3E05403603288828983E0C0E056
:1043D300EC1244813DF583D0E01244DD8C828D8361
:1043E300E054036402701488828983E0C0E01244BD
:1043F3006FD0E01244DD8003A3E4F0EC1252853D5C
:10440300126DE2EC2410FEE43DFFEA241DF582E484
:104413003BF583E0F5088E828F83E0C3982508F58A
:1044230008F0EA2417F8E43BF98882F583E0C395A2
:1044330008C0E012445DD0E0125D38C39508500A0D
:1044430012445DE4F0124479E4F00240432415F58C
:1044530082E422EA240DF582E422EC240DF582E4C1
:104463003DF58322EC12543E3DF58322EC2414F5F2
:1044730082E43DF58322EC123EA73DF5832224130B
:10448300F582E422E0FEA3E0FF8C828D83A3A3A345
:10449300A32212449BA3A3228983E0F508A3E0FF90
:1044A300E5088C828D8322A3A3A3A3F0A3EFF0E8F6
:1044B3002402F8221244BCA322E4F08C828D83A34D
:1044C300A3A3221244E4A882A98322123E63A3A3D6
:1044D300A3A3221244E4A3E022A31244E408A98381
:1044E30022125D41A32274F41209EF74F312104BEC
:1044F3008A0A8B0BECFEEDFF8C82F583E0540CF5FE
:1045030008E0A2E75006E508D2E7F508E508D2E19E
:10451300F50812578D7006E508D2E4F508E0A2E528
:104523005006E508D2E5F5087C087D007900AA214C
:10453300AB221217E674021212ABE508126DE8C043
:10454300E074031212ABD0E0124B76E50AF0A3E558
:104553000BF074051212AB1266541212ABE07077B3
:1045630074081212AB124AFC125D2A3812666FC02D
:10457300E074081212AB1245FDD0E012664FC0E0A2
:1045830074081212AB1245F3D0E0F074081212ABA8
:104593001245E9E0124B24124BA512613EEE2411A1
:1045A300125759C0E01245DFD0E0F0EE2414125741
:1045B30059C0E074081212AB124AFC2435F582E4A8
:1045C30038F583D0E0124B49C0E074081212AB12E5
:1045D3004B00D0E01263A8740D0231B8E82432F521
:1045E30082E439F58322124058A3A3A3A3A3A322F1
:1045F300124B1012684E38F58322124B102426F505
:1046030082E438F5832274F71209EF7E008A828BE5
:1046130083A3A3A3A3A3A3A3A3A3E06404600302AC
:1046230046CB125436E060030246CB1252983B123B
:10463300531470030246CB88828983E054036003DA
:104643000246CBE812543E39F583E0FA8C828D831F
:10465300A3A3E0FBA3E0CB2411F582E43BF583E0C5
:104663006A706588828983A3A3A3A3A3A3A3A3A337
:104673001246CFE06A7003A3E06B704C8882898393
:10468300A3A31246DBE0FFA3E0CF24061257596A27
:104693007003A3E06B703188828983A3A3E0F88C55
:1046A300828D83A3A3E0F9A3E0F5838982A3A3E02A
:1046B3006860138C828D83A3A3A3E0F5838982E0D2
:1046C300540C640470027E01EEF980201246D3225A
:1046D300124D0C8C828D8322A3A31246D3A3A32253
:1046E300740C1212ABE0F9740D120F987F01020CD7
:1046F300FC74F61209EF74FC12104BEAFEEBFFECAC
:10470300FAEDFB8C82F583A3E0540360169014A1A9
:1047130012531660597900EEFCEFFD125F35122833
:10472300B3804B852182852283EEF0A3EFF07402E0
:104733001212AB124B6BAC21AD227ABC7B2012223E
:10474300E48A088B09A808A909EA4960218A828BAF
:1047530083A3A3A3A3A3A3A3A3A37406F07A0088AC
:10476300828B83124AFC1260FEE0F9122242740427
:1047730002404074F21209EF74F312104BEAFEEB9D
:10478300FF8A82F583A3A3A3A3A3A3A3A3A3A3E065
:10479300F50A9016FAE0700579BA024AB475080171
:1047A300750900750C00750D007C087D007900AA61
:1047B30021AB221217E674051212AB7401124B7E61
:1047C3005404601274021212ABE0D2E6124B7E5410
:1047D300087003750803E05410600674404508F53B
:1047E30008E05408602274021212ABE044C0124B7A
:1047F3007E5420600A74031212ABE0D2E080087486
:10480300031212ABE0D2E1F0EE2415125759124A0B
:10481300E47003740169700674084508F5088E8214
:104823008F83A3A3A3A3A3A3A3A3E0701612233E82
:1048330085218285228312614B74021212ABE0D26E
:10484300E28030640F701074021212AB124B867444
:10485300044508F508807F8E828F83A3A3A3A3A3B7
:10486300A3A3A3E064028E828F83700A126E1BE8F7
:10487300F0A3E9F08060A3A3A3A3A3A3A3A3E0648D
:1048830003700DAC21AD22EEFAEFFB1220F280464D
:104893008E828F83A3A3A3A3A3A3A3A3E064017026
:1048A30035901535E0601074021212AB124B867509
:1048B3000910750AFF801874021212ABE0440C123F
:1048C3004B7674FDF0A374FFF074044508F5088E6D
:1048D300828F831230CBEE2415125759A2E0503F3A
:1048E30074021212ABE0540C701B8E828F83124D34
:1048F30004121D74E9700579BB024AB474021212E2
:10490300ABE0D2E5F0EE2415125759A2E050107433
:10491300021212ABE0540C64047004E0D2E5F0EE32
:104923002411125759C0E074041212ABD0E012667E
:10493300561212ABE06003024AAD74081212AB12B6
:104943004B3FE508F0A3E509F0124ADAE0C0E012B4
:104953004AD0D0E0F0124AC1E0C0E074081212ABB2
:10496300124AFC12448138F583D0E0124BA564014E
:104973007011901535E0C0E074081212AB124B1A97
:10498300D0E0F074081212AB124B3A124ACBFAE899
:10499300241CF582E439F583EA124B71EE2415FAEF
:1049A300E43FFB8A82F583127642E8125A9539F581
:1049B30083124B6BEE241C125759C0E0124AB7D036
:1049C300E0125BDB124AE47003740169701374082C
:1049D3001212AB125426FAEE241D125759F9121F64
:1049E300C68E828F83A3A3A3A3A3A3A3A3A3E0C081
:1049F300E074081212AB1245FDD0E0F074081212F5
:104A0300AB1245F3E50AF074081212AB1252B92443
:104A130028F582E439F583E50CF0A3E50D124B513B
:104A2300124B241257D212613EEE124ACBC0E0E879
:104A33002433F582E439F583D0E0F0EE241B1257DA
:104A430059C0E074081212AB124B00D0E0F0EE2410
:104A53001A125759C0E074081212AB124AFC2432DE
:104A6300F582E438F583D0E0124B49124AF0120F75
:104A730081126854127642740B1212AB124AFC2450
:104A83002F127B1E120F98EE2415125759544060B3
:104A9300129014C1125316600AAA21AB22125F3579
:104AA3001228B3AA21AB22122164740C1212ABE0B8
:104AB300F9024DEBE82420F582E439F58322EE2454
:104AC30019F582E43FF58322126863E022E8241299
:104AD300F582E439F58322EE2418F582E43FF58369
:104AE300225480F8A3E05401F974806822F508A3E6
:104AF300E0F509750A00780822124B1022124B10B8
:104B03002434F582E438F58322A3A3A3A3124B1420
:104B130022E0F8A3E0C822124B1012445038F58368
:104B230022FAA3E0FBE8242AF582E439F583EAF0CC
:104B3300A3EB22A3A3A3A312404EEE221252BD1253
:104B4300529D39F58322F0EE24131257DA22F0EE48
:104B5300240D1257DA22E0FC8A828B83E02CFCA31B
:104B6300E03400FD8A828B83ECF0A3EDF022F0A306
:104B7300E4F022F085218285228322F0EE241512AF
:104B830057DA22E0D2E3F0124B8E228E828F831209
:104B93004052852182852283E8F0A3E9F022E8F0E0
:104BA300A3E9126291E02274F71209EF8A828B83E0
:104BB300A3E0640170047E6380027E648A828B8337
:104BC300E060087905124BDE24F3FE9014DDE0600B
:104BD30007F9124BDE24F2FE0246CB12220CE9F84F
:104BE300EEC3982274F61209EF74FE12104B85215E
:104BF3008285228312614BE9FEECFAEDFB9005817D
:104C03001253166032A821A922880889097808124C
:104C13000F857D01740E1212ABE0FCEEF990058155
:104C230012611F1228B37402120F98EA4B600479C1
:104C330000800679B2800279B602403E74F7120909
:104C4300EFE9FE901497125316601F74091212AB0A
:104C5300E0F5087808120F89EEF990149712611F96
:104C63001228B37401120F98800279B60246EF74CA
:104C7300F71209EF8908ECFEEDFF79B5E508245E2C
:104C8300602014600624F86034803D900583124C44
:104C9300CE6035126E5F1228B38E828F8312614B02
:104CA3008024901499127642EC4D601CEEFCEFFDCB
:104CB30090149912611F1228B3E9F9800B9014958F
:104CC300124CD412197879000246EF124D08EA4BC0
:104CD30022127646EEFAEFFB2274F71209EFE9FE91
:104CE30079B574AB6E700B901495124D041219784C
:104CF30079000246EF8E828F83A3A3A3A3A3A3A36A
:104D0300A3124D0822124D0C22E0FAA3E0FB2274F9
:104D1300F11209EFEAFEEBFF8C0A8D0B7508019087
:104D230014E5E06E7003A3E06F700C124DDFAA0A66
:104D3300AB0B121978805E122344EE6A7002EF6B9C
:104D43007009AA0AAB0B12234A804AAC0AAD0BEED8
:104D5300FAEFFB121E9AE9F5089016F1E07036128D
:104D630027BEE97030E508702C9014B5E06E70032F
:104D7300A3E06F7020EE4F601C750CAD750D1475BC
:104D83000E00780C120F817C087D00AA0AAB0B126F
:104D93006E0B120F98A90802773E74F21209EFEA1C
:104DA300FEEBFF8C088D09750A01124DDFEEFAEF59
:104DB300FB121972E9640170119014E512404A85DF
:104DC3000882850983126DE4800EAC08AD09EEFA02
:104DD300EFFB121EA0E9F50AA90A80111223388AF3
:104DE3000C8B0DAC0CAD0D22740D120F987F0602C7
:104DF3000CFC74F61209EFEAFEEBFF7A0D7B00124E
:104E0300188EEA4B6062EE2424126AE8F0EE242541
:104E1300126AE8A3124EAD126AEEA3A312688112BE
:104E23004E88F0EE124E6E124E9DE8F0A3E9124E3C
:104E3300C4124E95126DE4EE124E77126944A3A389
:104E4300A3A3F0EE2433125759C0E0124E80D0E0F2
:104E5300126673124E95A3A3A3E8F0A3E9124EBC06
:104E6300C0E0125436D0E0F0024043242AF582E435
:104E73003FF58322242EF582E43FF58322EA12587C
:104E8300AF3BF58322124E8C22E08A828B83A3A34D
:104E9300A3221269A3A3A3A3A322124EA122124009
:104EA300528A828B83A3A3A3A322F0124EB222EED3
:104EB3002426F582E43FF58322F0EE24321257DAFA
:104EC30022F0EE242C1257DA2274F41209EF74FE46
:104ED30012104BECFEEDFFEC2416125759640570CB
:104EE30010EC2406FCE43FFD1220ECE97003024FB2
:104EF30078AC21AD22126B9D121D7A852182852209
:104F030083125316606B8E828F83E064017058E8BE
:104F130075F009A4F8AAF075F009E9A42AF9740E4A
:104F230028F8740239F9E8FAE9FB8882F5837808EE
:104F3300121254EE12501A1211E84027852182856D
:104F43002283124B3A125767124F7D78081212547C
:104F530090862B780812117B8A828B837808121231
:104F630045800A79A28010EE240F126DDE7900804D
:104F73000679A1800279C80231B6124B9BEE126802
:104F83006F2274F21209EF8A0C8B0DECFEEDFFEC2D
:104F9300125767E4F0A3F090863F7808121254EC9E
:104FA30012501A1210B66067EC240E125760703458
:104FB30078B39014DCE0702890150EE06401702043
:104FC300EC2411125759F91221F48B09A909EE1295
:104FD30052993F126149EA4960047800800278A13E
:104FE3008808802EE060046402700A1220FEE9F54E
:104FF300087007801DE064037010EEFCEFFDAA0C3F
:10500300AB0D121D9EE9F50880087508A180037594
:1050130008A3A908024DF012686F78082274F012F1
:1050230009EF74F512104BEAFEEBFFEA240AFCE4E5
:105033003F8C82F583127ADF1252A3740312102B72
:105043008A828B83125F3FE9700302510974011254
:10505300102B7403121023121D7A74011212AB1257
:1050630053167003025109E875F009A4F8AAF07504
:10507300F009E9A42AF9740A28FC740239FDE50849
:10508300240E126390E4F0041212AB12404AE508B6
:105093001252993509126DE28C828D83121288E5C2
:1050A30008241212639012129490862B780812121D
:1050B300548C828D83780812112F8C828D83780C07
:1050C3001212549086F37808121254780C7908124D
:1050D3000980E5084509450A450B702A7401121237
:1050E300AB1252B975F009A4F8AAF075F009E9A456
:1050F3002AF9741228F582740239F5837401F07A5F
:10510300007B081252C68E828F83A3A3A3A3A3A3FB
:10511300A3A3A3A3E02406FCA3E03400FD8E828FA7
:1051230083125F3F126661603EEE240A12528B12B5
:105133004B3F7468124B71E812528539F583740240
:10514300F09014C71212888C828D83126138125D1D
:105153002A3CF58312129490862B780812125490ED
:1051630014C7780812112F125301705D9014951211
:1051730052B1A3A3A3A3A3A3A3A3A3A3125D6012EA
:105183001972E97010125D1E901495125D3070054E
:1051930012666160348E828F83A3A3A3A3A3A3A308
:1051A300A3A3A31252B1124D04121DA4E960118EE0
:1051B300828F83A3A3A3A3A3A31252EDE4F0A3F0CE
:1051C3008E828F831252D3E4F01253016003025292
:1051D300808E828F83A3A3A3A3A3A3127ADB90144D
:1051E300DCE0600302527590150EE0640160030277
:1051F3005275750A3A750B00780A120F85740212FC
:10520300101B880A890B780A120F851270DA120FA5
:1052130098E9705BE508240E126390740112531B26
:10522300C0E0E5082411126390D0E0F0E508240FF4
:10523300126390743A124B719014C3121288E508EA
:10524300241212639012129490862B78081212542F
:105253009014C3780812112F90862B7808121254D9
:105263009014C378081210B670081252C280031249
:1052730052A31253017006125C2174A1F0740B0245
:105283006A13240EF582E422F8E43FF9E8FCE9FD11
:105293008882F58322EA12529D22240FF582E422AA
:1052A300E50812529D3509F583E4F0A3F022127646
:1052B300468E828F83221252BD22124052E8227AF6
:1052C300007B0290136EE0F912183A228A828B83D4
:1052D300A3A3A3A3A3A3A3A3A3A31252E122124BA9
:1052E30014240EF582E438F58322A3A3A3A3125258
:1052F300F522124B14240FF582E438F583228E82B3
:105303008F83A3A3A3A3A3A3124B0C240FF582E4BF
:1053130038F5831252BD492212531F22F085218290
:10532300852283E02274F61209EFEAFEEBFF7A236B
:105333007B0012188EEE240AF508E43FF509850870
:10534300821261497C237D0079001217E685088269
:1053530085098312531670030253E9EEFAEFFB1229
:10536300210A12530160748E828F8312541C6401CC
:105373008E828F83A3A3A3A3A3A3700712541274D3
:105383000E80211253167010126661700B8E828F7D
:1053930083A3A3E0A2E05007125408740D80051202
:1053A300540874051266735403640170071253F0B2
:1053B3007405800B9014DDE0C0E01253F0D0E012CE
:1053C300542BF583888212578685088285098312B8
:1053D3004AFC1260DD38F583E9800E850882850971
:1053E300831261C28003126105F00240438E828FF3
:1053F30083A3A3A3A3A3A3A3A3A3A312540222E05F
:10540300126124A3228E828F83A3A3A3A3A3A31237
:105413004B0C1260E338F58322A3A3A3A3A3A3A396
:10542300A3A3A31252E1E02212542F22126BB2F86B
:10543300A3E022EA12543E3BF58322240CF582E4D6
:105443002274F11209EF74E412104B8A0C8B0D8C49
:10545300088D097A237B0012188E8A0A8B0BAE0AF9
:10546300AF0BEA4F70030257411260E9E5082415B8
:10547300125772687003A3E0698E828F837004747D
:105483000280027401F0E508240DF8E43509F98877
:1054930082F583E0FAC3E49AFA95E0FB12576E2A89
:1054A300FAA3E03BFB8E828F83A3A3A3A3125D47E2
:1054B3008E828F83A3A3F0EE2420F582E43FF5834D
:1054C300E4F0EE2421F582E43FF583E4F0EEFAEF15
:1054D300FB1221BE85088285098312578D70098EC0
:1054E300828F83A3740580069014DD12577BF0EE40
:1054F3002417F50AE43FF50B8E828F83125786E952
:10550300850A82850B83F0EE2416F8E43FF9E5085B
:10551300240EFAE43509FB88828983124B59E50886
:105523002410FAE43509FB850A82850B83E0FC88A5
:10553300828983E0F88A828B83E0C398C39CF81244
:1055430057C7F0EEFCEFFDAA0CAB0D122104E9F5F1
:105553000B8E828F83E064027006125D1E12574B1E
:10556300E50B6003025738750C00750D009016F1BA
:10557300E064016005E06402703F12575D6008EE6D
:10558300242112576070328E828F83A3A3A31261EA
:105593000B125793EE24161257591257BCFAE439DB
:1055A300FB123E4BEA4B601112696D120F811257C9
:1055B300A1AA0C126E0B120F98EEFAEFFB1221CA7E
:1055C300E9F50B9016F1E064016008E06402600302
:1055D30002572BE9700302572BE50C450D700302AC
:1055E30057388003850E0B12575D600BEE24211292
:1055F30057606003025731850B0E850C08850D0932
:10560300750A007808120F811257A18E828F83A327
:10561300A3A3A3127B24120F98EE242012575960E0
:105623000D1257667468124B71EE24208015EE2418
:105633002112575960151257667403F0A37401F0D1
:10564300EE2421F582E43FF583E4F0EEFAEFFB125A
:1056530021CAE9F50B70907C137D0079007409125F
:1056630010231217E6741A1212AB74011257D26484
:10567300687002A3E0704F8E828F831252EDE06454
:105683000560030255E77C0879FF8E828F83A3A30D
:10569300A3A3E0242A125D63121870E97003025574
:1056A300E77C087D0079FF74011210231217E6745A
:1056B3000112102B7A007B0079AB1220E6741912C9
:1056C30012AB74FC8015125766E064037004A3E008
:1056D3006401700874191212AB74FFF0E4F508F555
:1056E300097808120F85740212102B74131212AB6F
:1056F300AA82AB83126248120F9885218285228386
:10570300E0602B740912101B880889097808120FAE
:10571300857508137509007808120F857C007D00D4
:10572300126ABB120F988006E50C450D6007AA0CA0
:10573300AB0D121894EEFAEFFB1218948003750B5D
:1057430010A90B741C02773BEE2406FAE43FFB120C
:10575300197822EE240C1257DA22EE24201257DA9B
:10576300640122EE12529D3FF58322E508240EF5D3
:1057730082E43509F583E022125780A322E08E826A
:105783008F8322A3E0F912220C22E0540364012246
:1057930012579722E0FAE82AF8E43400F9228E82BD
:1057A3008F83A3A3A312610F125797EE24161257E8
:1057B300DA1257BCFCE439FD22FAE82AF8E439F995
:1057C300E82404221257CB22126682A3A3A322F059
:1057D3001257D722EE240FF582E43FF583E02279B6
:1057E30001020F6574F41209EFEAFEEBFF8A82F5FA
:1057F30083A3A3A3A3A3A3A3A3124AFC2424F582F4
:10580300E438F58312578D702E8A828B8312541CD1
:1058130070251258B5E06405701D1258B5A3E0F861
:10582300740168600574066870071252CF740280B1
:10583300051252CF7403F0EA240A1261B612611FF3
:10584300E4F0EA2408F8E43F1231A52431F582E4B8
:105853003AF583E0C0E0126E56A3A3D0E01258D409
:10586300CA242EF582E43AF583E0C0E0126E56A313
:10587300A3A3D0E0125DFAC81258AF381240481201
:105883006E561258C98A0A8B0BAC0AAD0B85088277
:10589300850983125D601219788508828509831250
:1058A3004D041221CA1261B1F00231BB240BF582FF
:1058B300E4228A828B83A3A3A3A3A3A3A3A3126635
:1058C30048F583888222A3A3A3A3124B9B122338F8
:1058D30022125D3CFAA3E0220257E2C082C0839009
:1058E30014B77410F0A37421F09014B9741CF0A3CE
:1058F3007421F09014BB7422F0A37421F09014BDB2
:105903007416F0A37421F0025BE574F41209EFEA54
:105913002408FEE43BFF8E82F5831252B91260F530
:10592300E0F50874035508F509125D5BF8A3E088F8
:1059330082F583E508F0A3A882A983E509600974C9
:1059430002650960030259FA740C5508FC600A7475
:10595300086C600574046C7026740265097006E5B2
:1059630008A2E4401A8A828B83A3A3A3A3A3A3A3BD
:10597300A3125B0012684E3D125A9BA308A98374BD
:105983000C6C701C125AFC2428125AE82428F58245
:10599300E43DF583A312647CF0E82402F850010986
:1059A300740265097006E508A2E4404B125AFC2410
:1059B3002A125AE8242AF582E43DF583A3125AAA4F
:1059C300125B0612647C125B06A3125AA2E824043B
:1059D300F8500109EC600F74086C600A740C6C6079
:1059E3000574046C701112612C2426F582E43C12B8
:1059F3005A9BA3A882A9838A828B83A3A3A3A3A36D
:105A0300A3A3A3125ACA54037014E508A2E1400EDB
:105A130012612C125A953CF583E054806008125AA7
:105A2300B0125A9D801990148BE0C0E0125AB0D086
:105A3300E0125ADD88828983125ADD04125D41A384
:105A4300A882A983E508A2E750458E828F83125A64
:105A5300CA88828983125AE3125ACF5403603012E0
:105A6300612C2434F582E43C12647AF0E508A2E167
:105A7300501D8A828B83A3A3A3A3A3A3A3A3123141
:105A8300AA2435F582E43A12647AA3F0E8240302E7
:105A930031BB241EF582E422F583125AAAF02212A6
:105AA3005AAAA3A3A3F022E088828983228A828B45
:105AB30083A3A3A3A3A3A3A3A3E0FCA3E0CC2432C7
:105AC300F582E43CF58322E0125ACF22FCA3E0CC1A
:105AD3002425F582E43CF583E022F090148BE02248
:105AE30012667EE022F582E43DF583125AAA125A29
:105AF300F522126682125B00228E828F83E0FDA361
:105B0300E0CD22A3125AF5242CF582E43DF583223D
:105B1300C082C0838A828B83125BD5FC74035CF9D9
:105B23008A828B83A3A37401F0E960057402697010
:105B330061740C5CF8600A7408686005740468702A
